:100000000C94560B0C94870B0C94870B0C94870B59
:100010000C94870B0C94870B0C94870B0C94870B18
:100020000C94870B0C94870B0C94870B0C94870B08
:100030000C94870B0C94870B0C94870B0C94870BF8
:100040000C94870B0C94870B0C94870B0C94870BE8
:100050000C94870B0C94870B0C94870B0C946529DC
:100060000C94870B0C94D9290C94AF290C94870B12
:100070000C94870B0C94870B0C94870B0C94870BB8
:100080000C94870B0C94870B0C94870B0C94870BA8
:100090000C94870B0C94870B0C94870B0C940F2AF1
:1000A0000C94870B0C94870B0C94870B0C94870B88
:1000B0000C94870B0C94870B0C94870B0C94870B78
:1000C0000C94870B0C94870B0C94870B0C94870B68
:1000D0000C94870B0C94870B0C94870B0C94870B58
:1000E0000C94870B0C94330F0C94C30B0C94DB0F04
:1000F0000C94C70B0C94CF0E0C94E80B0C94BD1A07
:100100000C94070E0C9479100C94880F0C94BA0D73
:100110000C94881D0C94DF0B0C94D3220C94580E75
:100120000C94D50E0C94B0150C94A90F0C94DB0B09
:100130000C94820D0C94942B0C9464180C9446101F
:100140000C94D10E0C9429180C9459230C944E1035
:100150000C9471100C948C0E0C94600D0C94DB0EAE
:100160000C946B210C94B60B0C94D30E0C945C1075
:100170000C94BA0B0C94240D0C94890B0C946A10FB
:100180000C9444120C94AA0E0C94CD0B0C94DF2208
:100190000C94510D0C9455100C94D50B0C94ED0B44
:1001A0000C94E90B0C94F3250C942F100C94BD0BBC
:1001B0000C94A6160C94540F0C94D10B0C94AE0B0B
:1001C0000C9463100C94A80B0C9405240C94C72277
:1001D0000C94EE280C9478100C94AA1A0C94B72264
:1001E0000C94D90E0C94D70E0C94DD0E0C94740D57
:1001F0000C94B20B0C94F10F0C9406240C94E30BAA
:100200000C945A1E00000000003E5B4F5B3E3E6BAC
:100210004F6B3E1C3E7C3E1C183C7E3C181C577DA0
:10022000571C1C5E7F5E1C00183C1800FFE7C3E7EC
:10023000FF0018241800FFE7DBE7FF30483A060EFE
:100240002629792926407F050507407F05253F5A45
:100250003CE73C5A7F3E1C1C08081C1C3E7F1422B5
:100260007F22145F5F005F5F06097F017F00668960
:10027000956A606060606094A2FFA29408047E04A6
:100280000810207E201008082A1C08081C2A0808CC
:100290001E101010100C1E0C1E0C30383E3830068C
:1002A0000E3E0E06000000000000005F0000000788
:1002B000000700147F147F14242A7F2A12231308B6
:1002C000646236495620500008070300001C224192
:1002D000000041221C002A1C7F1C2A08083E080836
:1002E00000807030000808080808000060600020E6
:1002F000100804023E5149453E00427F40007249C9
:100300004949462141494D331814127F102745456C
:1003100045393C4A49493141211109073649494982
:1003200036464949291E00001400000040340000F0
:100330000008142241141414141400412214080259
:10034000015909063E415D594E7C1211127C7F49CC
:100350004949363E414141227F4141413E7F494921
:1003600049417F090909013E414151737F0808084D
:100370007F00417F41002040413F017F081422411E
:100380007F404040407F021C027F7F0408107F3E78
:100390004141413E7F090909063E4151215E7F09E5
:1003A000192946264949493203017F01033F40404C
:1003B000403F1F2040201F3F4038403F6314081437
:1003C0006303047804036159494D43007F4141416F
:1003D0000204081020004141417F04020102044050
:1003E00040404040000307080020545478407F28D4
:1003F0004444383844444428384444287F385454CA
:10040000541800087E090218A4A49C787F080404EC
:100410007800447D40002040403D007F102844008B
:1004200000417F40007C047804787C08040478381C
:1004300044444438FC1824241818242418FC7C084C
:10044000040408485454542404043F44243C4040C9
:10045000207C1C2040201C3C4030403C442810287C
:10046000444C9090907C4464544C440008364100C5
:100470000000770000004136080002010204023C3F
:100480002623263C1EA1A161123A4040207A38540E
:100490005455592155557941225454784221555487
:1004A000784020545579400C1E52721239555555DA
:1004B00059395454545939555454580000457C41C5
:1004C0000002457D420001457C407D1211127DF005
:1004D000282528F07C545545002054547C547C0A2F
:1004E000097F4932494949323A4444443A324A48F8
:1004F00048303A4141217A3A42402078009DA0A0FC
:100500007D3D4242423D3D4040403D3C24FF24244D
:10051000487E4943662B2FFC2F2BFF0929F620C06C
:10052000887E090320545479410000447D413048BD
:10053000484A32384040227A007A0A0A727D0D1900
:10054000317D2629292F28262929292630484D4062
:1005500020380808080808080808382F10C8ACBA5E
:100560002F102834FA00007B000008142A142222DD
:10057000142A14085500550055AA55AA55AAFF5526
:10058000FF55FF000000FF00101010FF00141414AE
:10059000FF001010FF00FF1010F010F0141414FCF6
:1005A000001414F700FF0000FF00FF1414F404FC13
:1005B000141417101F10101F101F1414141F0010F4
:1005C0001010F0000000001F101010101F1010106D
:1005D00010F010000000FF1010101010101010107C
:1005E000FF10000000FF140000FF00FF00001F10BC
:1005F000170000FC04F414141710171414F404F476
:100600000000FF00F714141414141414F700F71466
:100610001414171410101F101F141414F4141010B5
:10062000F010F000001F101F0000001F1400000059
:10063000FC140000F010F01010FF10FF141414FF51
:10064000141010101F00000000F010FFFFFFFFFF4C
:10065000F0F0F0F0F0FFFFFF0000000000FFFF0FE0
:100660000F0F0F0F3844443844FC4A4A4A347E0284
:10067000020606027E027E02635549416338444405
:100680003C04407E201E2006027E020299A5E7A5BA
:10069000991C2A492A1C4C7201724C304A4D4D302B
:1006A0003048784830BC625A463D3E494949007E50
:1006B0000101017E2A2A2A2A2A44445F44444051E7
:1006C0004A444040444A51400000FF0103E080FF9B
:1006D000000008086B6B083612362436060F090F27
:1006E00006000018180000001010003040FF010143
:1006F000001F01011E00191D1712003C3C3C3C006C
:100700000000000011007F96290001007F9628005C
:100710003A0155C0021010C10141C50400228040B9
:10072000360168B00100B102B011B40102B6030293
:10073000023BB701C63A0155F704A9512C82C00209
:100740000D0DC1024300C20100C50400480048B4B9
:100750000100B60302023BE00F0F211C0B0E0849FB
:100760009838091103141000E10F0F2F2B0C0E06FF
:10077000477637071104231E00B00100B3040200BE
:100780000000B40100D003074218D103000710D2C3
:10079000020102D3020102D4020102C005123B0091
:1007A0000211C103101088C50103C60102C80C0064
:1007B0003236450616377577540C00CC0100F60327
:1007C000010100CF03008130ED0464031281E803CE
:1007D000851078CB05392C003402F70120EA02009D
:1007E00000B00100B102001BB40100C00121C10131
:1007F00011C5023F3CC701B5360148F20100260190
:1008000001E00F0F26240B0E0954A8460C17090F00
:100810000700E10F00191B0410072A4739030606D9
:1008200030380F360100B00100C10410100202C0C0
:1008300006003500000102C50104D2020104CA010C
:1008400000EA0180B903FF83577F967F96B60125A2
:10085000C0065050013C1E08B4070240002A2A0D71
:10086000787F01F20B161603080808081004161604
:10087000FD03110235B2050C0C003333B70135BB53
:10088000012BC00104C20201FFC30111C40120C633
:10089000010FD002A4A1E00ED000050E150D3743C4
:1008A000470915121619E10ED000050D0C062D444E
:1008B000400E1C1816193A01557F0AB00103E201D7
:1008C0003FC00122E20100B00100C0010AB00100F6
:1008D0000000000000000000000000000000000018
:1008E000FFFF0F0000040062080008080003000C6E
:1008F00001030B5A02030609030317100403002324
:1009000005030017060309630703090C08030C100D
:10091000090332221000160011000101120000002C
:100920001300010000013003010137020301000D33
:10093000800200610201B0C1FFFF3200010000012E
:100940000200000103003010090001000C0000004B
:10095000900000800F000000100200001102EF0064
:100960001202000013028F010005000001050000C3
:1009700002055F000104010004040000FFFF3200D3
:1009800007000001FFFF320000020000010200002A
:100990000000000000000000000000000000010056
:1009A000A4000100FFFF0A006000002708000808FB
:1009B0003000140231001537320004063300160EE1
:1009C0003400112235000015360007853700071462
:1009D00038000314390020009000150010001004A6
:1009E00011003702290046002A00460007000000D7
:1009F0001200890113000011FFFF96001200B901D7
:100A00000100000102000002030030100900010093
:100A10000A0000000D0000000E003000610001001F
:100A20006A000000800000008100000082005F007A
:100A30009200000193000107FFFF50000700000132
:100A4000E500F07801000001020000020300301010
:100A50000400000005000000080007020900000073
:100A60000A0000000C0000000D0000000F00000054
:100A70001000000011000700120000001300000029
:100A800007000100FFFFC8001000901611002702A8
:100A9000FFFF320012000D00FFFF320013000012B2
:100AA00029000A002B000D00FFFF3200200000008B
:100AB0002100000030000000310004043200030077
:100AC0003500050436000808370007043800030322
:100AD000390007073C0004053D00080860000027B6
:100AE000610001006A000000800000008100000039
:100AF00082000000830000008400000085000000E8
:100B0000900010009200000007003301E500008013
:100B10000000010001000001020000070300301086
:100B20000400000008000202090000000A000000A2
:100B30000C0000000D0000000F000000100000007D
:100B4000110007001200000013000000FFFF320038
:100B50001000B01711000700FFFF0A0012003A0151
:100B6000FFFF0A001300001A29000C00FFFF0A0013
:100B70003000000031000505320004003500060099
:100B80003600070737000501380002003900070763
:100B90003C0004073D000708600000A76100010059
:100BA0006A0000002100000020000000800000001A
:100BB000810000008200000083000000840000002B
:100BC00085000000900010009200000093000300D8
:100BD00095001001970000009800000007007301C5
:100BE000FFFF3200FF000100F300080000000100D9
:100BF000010000010200000703003010080002039A
:100C000009000000100000001100070012000000A1
:100C100013000000FFFF32001000B014FFFF0A00B5
:100C200011000700FFFF0A0012008E001300000CE5
:100C300029001500FFFF0A00300000003100070105
:100C400032000000350003023600020437000000C5
:100C500038000702390000003C0003023D00030495
:100C6000600000A761000100900029000700330127
:100C7000FFFF3200150030009A0010001100200024
:100C8000100028341200020013003810FFFF280063
:100C900012001200FFFF280010002034130045301E
:100CA000FFFF46003000000031000204320007035D
:100CB0003300040334000400350001043600070744
:100CC0003700050338001006390010060100000146
:100CD0000200000303003010080008080A000800A2
:100CE000600000276100010090003E0192000001B9
:100CF00093000001A0000030A300100007000100D5
:100D0000070021000700230007003300070033011C
:100D100011001A001200213113006C001400494226
:100D200010000008FFFF0A0011001A01FFFF0A006F
:100D300011001A03FFFF0A0011001A07FFFF0A0043
:100D400011001A0FFFFF0A0011003A0FFFFF1E00EB
:100D500001002801020000010300301007001210FA
:100D6000080003030B0000110C0000000F00011825
:100D70001500200050000101510003065200080434
:100D800053000000540005065500060456000303F6
:100D9000570003035800100059000010070012000C
:100DA000FFFF2800070013000700170000000000E5
:100DB0000000000F000000000000000F07FFFFFF11
:100DC000FFFFFF0F1FFFFFFFFFFFFF8F1FF8000058
:100DD00000000F8F1C0000000000038F1C000000AB
:100DE0000000038F1C0000000000038F1C000000A7
:100DF0000000038F1C0000000000038F1C00000097
:100E00000000038F1E0000000000038F1FFFFFFF84
:100E1000FFFFFF8F0FFFFFFFFFFFFF0F00E000004E
:100E20000000700F007000000000700F00700000E4
:100E30000000700F007000000000E00F0071E00083
:100E40000070E00F0039FC0003F8E00F0038FFF0FD
:100E5000FFF1C00F003CE3FFFEF1C00F001C700F5C
:100E600080E3800F000E780001C7800F000F3C0068
:100E700003C7000F00079E00078E000F0003C78006
:100E80001E1C000F0001E3F1FC78000F0000F0FFD2
:100E9000E0F0000F00003C1F83E0000F00003E1F49
:100EA00003C0000F00007C0F01E0000F0000F00FF6
:100EB00000F0000F0001E00F003C000F0003800F66
:100EC000001E000F0007000F000F000F000E000FA4
:100ED0000007000F001E000F0003800F001C000E13
:100EE0000003800F003800060001C00F003801F138
:100EF000FC01C00F00703FF1FFC0E00F0071FF0068
:100F000007FCE00F0077E000003EE00F00770000F4
:100F10000006700F006000000000700F00F000007D
:100F20000000700F0FFFFFFFFFFFFF8F1FFFFFFF8E
:100F3000FFFFFF8F1C0000000000038F1C0000005B
:100F40000000038F1C0000000000038F1C00000045
:100F50000000038F1C0000000000038F1C00000035
:100F60000000038F1C0000000000038F1FFFFFFF25
:100F7000FFFFFF8F0FFFFFFFFFFFFF8F000000004D
:100F80000000000F000000000000000F43616C69CA
:100F9000627261746520666F7220796F7572205479
:100FA0006F7563682050616E656C00000000000082
:100FB00000000000000001E000000007F000000059
:100FC00007F800000007F8000003CFFCF00007FF5F
:100FD000FFF8000FFFFFFC001FFFFFFC001FFFFFDB
:100FE000FC001FFFFFFC000FF80FF8000FF003F8E4
:100FF000000FE003FC007FC001FF00FFC000FE0007
:10100000FF8000F0F0FF8000F3F0FF8000E7E0FFDA
:101010008000E7C1FFC000E7C37FC001E7EF0FE03A
:1010200001CFFF0FF0038FFE0FF8071FFE0FFF3EEB
:101030003FFE1FFFFC77F81FFFF8E7800FFFF1CF9F
:10104000000FFFE39E0007DFC73C000187CFF800D9
:1010500000079CF00000079FE00000038FC0000025
:10106000000F8000000002000000000000000000EF
:10107000000000000018000000001C000000001C20
:10108000000000003C000000003C000000003C00AC
:101090000003801801C003C01803C003E00003C0B0
:1010A00001E000078000F000070000607E060000FD
:1010B00001FF80000003FFC0000007C3E000000F35
:1010C0000FF000000E3FF000001E7FF800001CFF34
:1010D000F800FE1CFFF87FFF1DFFF87F7E1DFFF864
:1010E0007E001FFFF800000FFFF000000FFFF00070
:1010F0000007FFE0000007FFE0000003FFC0000062
:1011000001FF80000071FF870000E1FF878003E09E
:10111000FF07C003C00003C003800001C00200FF3E
:1011200000400001FF80000001FF80000001FF80FF
:10113000000000FF000000003C0000000000000074
:101140000000000000000008000000000C0000008B
:1011500003FF0000001FFF8000007FFF000000FF72
:10116000FE000003FF0C004007F80801E00FE0005C
:1011700003F00FC00003F01F800001F81F00000003
:10118000F83F000000FC3E0000007C3E0000007CB8
:101190007E0000007E7E0000007E7E0000007E3E1D
:1011A0000000007C3E0000007C3F000000FC3F008F
:1011B0000000FC1F800001F81FC00003F80FC000F2
:1011C00007F00780000FE00300103FC000007FFF22
:1011D000800000FFFF000001FFFC000000FFF000A6
:1011E00000007F0000000030000000001000000040
:1011F00000000000000000000000000000000000EF
:101200000000000000000000000018000000003C8A
:10121000000000007E000000003C000000001800FC
:101220000003C01803C003C01803C003E01807C0C0
:1012300003F0180FC000F8001F000078001E000027
:1012400038001C000000000000000000000000004A
:1012500000000000007E00001000FF00083800FFC2
:10126000001C7FC0FF03FE7FC0FF03FE3800FF00AD
:101270001C1000FF000800007E00000000000000BD
:10128000000000000000000000000038001C00000A
:1012900078001E0000F8001F0003F0180FC003E0E4
:1012A0001807C003C01803C003C01803C00000180B
:1012B000000000003C000000007E000000003C0038
:1012C0000000001800000000000000000000000006
:1012D000000000000000018000000000000003C0CA
:1012E00000000000000003E000000000000007E034
:1012F0000000000000000FF00000000000001FF8D8
:101300000000000000001FF80000000000003FFC8B
:101310000000000000007FFE000000000000FFFF52
:10132000000000000000FFFF000000000001FFFFC0
:10133000800000000003FFFFC00000000003FFFF6B
:10134000C000000000000FF00000000000000FF0DF
:101350000000000000000FF00000000000000FF08F
:101360000000000000000FF00000000000000FF07F
:101370000000000000000FF00000000000000FF06F
:101380000000000006000FF0006000000E000FF0EB
:10139000007000001E000FF0007C00007E000FF0C7
:1013A000007E0000FE000FF0007F0003FFFFFFFF44
:1013B000FFFFC007FFFFFFFFFFFFE00FFFFFFFFF83
:1013C000FFFFF83FFFFFFFFFFFFFFC7FFFFFFFFF77
:1013D000FFFFFE7FFFFFFFFFFFFFFE3FFFFFFFFF5F
:1013E000FFFFFC1FFFFFFFFFFFFFF007FFFFFFFFF7
:1013F000FFFFE003FFFFFFF8007FC000FE000FF0DB
:10140000007F00007E000FF0007E00003E000FF025
:10141000007800000E000FF00070000006000FF0D2
:101420000060000000000FF00000000000000FF05E
:101430000000000000000FF00000000000000FF0AE
:101440000000000000000FF00000000000000FF09E
:101450000000000000000FF00000000000000FF08E
:10146000000000000003FFFFC00000000003FFFFBA
:10147000C00000000001FFFF800000000000FFFF2F
:10148000000000000000FFFF0000000000007FFEE1
:101490000000000000003FFC0000000000001FF8FA
:1014A0000000000000001FF80000000000000FF026
:1014B00000000000000007E000000000000003E062
:1014C00000000000000003C00000000000000180D8
:1014D000000000000000000000000000000000000C
:1014E00000000000000000000000000040000000BC
:1014F00000F000000001FBF80000071FF800000EDC
:101500000F0800001C0608000038000800007000EA
:10151000080000E000080001C00008000300000C03
:10152000000600000E001C000007001C0000070061
:101530001F00001F000300001C0003000018000330
:10154000000018000303F818000303FC180003034D
:101550000C180003020C180003020C180003020C04
:10156000180003020C180003020C180003FE0FF809
:101570000003FE0FF8000000000000000000000063
:101580000000000000000000000000002100240016
:1015900027002A002D003000330001010000040163
:1015A00007010A0100002200250028002B002E0060
:1015B0003100340002010000050108010B010000A8
:1015C00020002300260029002C002F0032000001FB
:1015D00000000301060109010505050507050808C6
:1015E0000808020202020A0A0808040404040101AD
:1015F00001010101010103030303030303030407C2
:1016000007070C0C0C0C0C0C0C0C02020202060658
:101610000606060606060B0B0B0B0B0B0B0B01024B
:1016200010202008081020401020408002010201F4
:1016300008040201010204081020408080402010AC
:101640000804020180040201804020100804020105
:10165000080402010102040810204080010204086D
:101660001020408000000A0B02090C0D0E08070331
:101670000401000000000000000000000000000065
:10168000000000000000000000000000000000005A
:101690001211100000000000000000000000000017
:1016A00000000000000000000000942B11241FBE69
:1016B000CFEFD1E2DEBFCDBF00E00CBF13E0A0E072
:1016C000B2E0E8E7FAE800E00BBF02C007900D9235
:1016D000AA3AB107D9F72AE0AAEAB3E001C01D92FD
:1016E000A73EB207E1F71BE0C6E5DBE000E006C07D
:1016F00021970109802FFE010E94F943C535D107CA
:1017000080E00807A9F70E94BD2C0C943A450C9480
:10171000000008958150823108F05AC0E82FF0E0AF
:101720008827EA56F44F8F4F0C94F943B60BBA0B47
:10173000A80BAE0BB20BE80BBD0BC30BC70BCD0B4D
:10174000D10BD50BDB0BDF0BE80BE30BE90BED0B40
:10175000809180008F778093800008958091800031
:101760008F7DF9CF80918000877FF5CF84B58F770B
:1017700084BD089584B58F7DFBCF8091B0008F77B5
:101780008093B00008958091B0008F7DF9CF809153
:1017900090008F77809390000895809190008F7DC6
:1017A000F9CF80919000877FF5CF8091A0008F774F
:1017B0008093A00008958091A0008F7DF9CF809143
:1017C000A000877FF5CF809120018F778093200143
:1017D0000895809120018F7DF9CF80912001877F2E
:1017E000F5CFCF93DF93282F30E0F901EC59F94E74
:1017F0008491F901E25EF94ED491F901E852FA4E72
:10180000C491CC23A1F081110E948A0BEC2FF0E04F
:10181000EE0FFF1FE254FA4EA591B491EC91ED2327
:1018200081E090E009F480E0DF91CF91089580E0BD
:1018300090E0FACF1F93CF93DF93282F30E0F90188
:10184000EC59F94E8491F901E25EF94ED491F90117
:10185000E852FA4EC491CC23A9F0162F81110E94B0
:101860008A0BEC2FF0E0EE0FFF1FEC55FA4EA5911E
:10187000B4918FB7F894EC91111108C0D095DE2384
:10188000DC938FBFDF91CF911F910895DE2BF8CFAE
:10189000CF93DF9390E0FC01E25EF94E24918852F1
:1018A0009A4EFC0184918823C9F090E0880F991F1B
:1018B000FC01E657FA4EA591B491FC01EC55FA4EA5
:1018C000C591D49161110DC09FB7F8948C9120956A
:1018D00082238C938881282328839FBFDF91CF9117
:1018E0000895623051F49FB7F8943C91822F80950F
:1018F00083238C93E8812E2BEFCF8FB7F894EC9154
:101900002E2B2C938FBFEACF863308F0865320917D
:101910007B00982F9870277F922B90937B00877085
:10192000806480937C0080917A00806480937A0048
:1019300080917A0086FDFCCF8091780090917900AB
:1019400008953FB7F8948091280490912904A091BC
:101950002A04B0912B0426B5A89B05C02F3F19F08F
:101960000196A11DB11D3FBFBA2FA92F982F88271F
:10197000BC01CD01620F711D811D911D42E0660FFA
:10198000771F881F991F4A95D1F708958F929F92CC
:10199000AF92BF92CF92DF92EF92FF926B017C01E8
:1019A0000E94A10C4B015C01C114D104E104F104BB
:1019B000B9F00E94A10C681979098A099B09683E4F
:1019C00073408105910580F321E0C21AD108E10836
:1019D000F10888EE880E83E0981EA11CB11CE4CFAC
:1019E000FF90EF90DF90CF90BF90AF909F908F903F
:1019F0000895FF920F931F93CF93DF93982F862F15
:101A0000F42E692F0E941A0C62E370E080E090E0EF
:101A10000E94C60CC8ECD0E00BE71CE061E08F2D03
:101A20000E941A0CC8010197F1F760E08F2D0E9407
:101A30001A0CC8010197F1F7219781F7DF91CF9137
:101A40001F910F91FF900895AF92BF92CF92DF92B6
:101A5000EF92FF920F931F93CF93DF936C017B0163
:101A60008B01040F151FEB015E01AE18BF08C017F4
:101A7000D10759F06991D601ED91FC910190F08167
:101A8000E02DC6011995892B79F7C501DF91CF911A
:101A90001F910F91FF90EF90DF90CF90BF90AF908C
:101AA0000895FC01538D448D252F30E0842F90E064
:101AB000821B930B541710F0CF9608950197089549
:101AC000FC01918D828D981761F0A28DAE0FBF2F12
:101AD000B11D5D968C91928D9F5F9F73928F90E068
:101AE00008958FEF9FEF0895FC01918D828D9817D7
:101AF00031F0828DE80FF11D858D90E008958FEF14
:101B00009FEF0895FC01918D228D892F90E0805CDC
:101B10009F4F821B91098F73992708958DE294E05E
:101B20000E94820D21E0892B09F420E0822F089584
:101B3000FC01A48DA80FB92FB11DA35ABF4F2C9142
:101B4000848D90E001968F739927848FA689B78939
:101B50002C93A089B1898C91837080648C93938D30
:101B6000848D981306C00288F389E02D80818F7DD3
:101B700080830895EF92FF920F931F93CF93DF938B
:101B8000EC0181E0888F9B8D8C8D98131AC0E889B9
:101B9000F989808185FF15C09FB7F894EE89FF8988
:101BA0006083E889F98980818370806480839FBF26
:101BB00081E090E0DF91CF911F910F91FF90EF9026
:101BC0000895F62E0B8D10E00F5F1F4F0F73112736
:101BD000E02E8C8D8E110CC00FB607FCFACFE88971
:101BE000F989808185FFF5CFCE010E94980DF1CF54
:101BF000EB8DEC0FFD2FF11DE35AFF4FF0829FB7E5
:101C0000F8940B8FEA89FB8980818062CFCFCF93D4
:101C1000DF93EC01888D8823B9F0AA89BB89E88914
:101C2000F9898C9185FD03C0808186FD0DC00FB6BA
:101C300007FCF7CF8C9185FFF2CF808185FFEDCF38
:101C4000CE010E94980DE9CFDF91CF91089580E0F9
:101C500090E0892B29F00E948E0D81110E940000D6
:101C600080E090E0892B49F080E090E0892B29F01A
:101C70000E94000081110E94000080E090E0892B0A
:101C800049F080E090E0892B29F00E94000081114A
:101C90000E94000080E090E0892B49F080E090E015
:101CA000892B29F00E94000081110C9400000895F6
:101CB000CF93DF93FC012781222359F1EC0161E0EE
:101CC00080850E94480C61E089850E94480C8F81C4
:101CD000843011F08830B1F461E08A850E94480CAC
:101CE00061E08B850E94480C8FA58F3F91F061E0E9
:101CF0000E94480C6EA581E068278FA5DF91CF91E7
:101D00000C941A0C833011F0863071F761E08A85EB
:101D1000E9CFDF91CF910895CF93DF93FC01278125
:101D20002223A9F0EC010190F081E02D0284F385DB
:101D3000E02D60E019958FA58F3F49F061E00E948A
:101D4000480C6EA58FA5DF91CF910C941A0CDF91F2
:101D5000CF910895DC01ED91FC9111972285338597
:101D60004770552766277727415051096109710946
:101D7000473051056105710570F4FA018827EC536D
:101D8000F14F8F4F0C94F943CF0ED10ED30ED50ED9
:101D9000D70ED90EDB0E61E0CD01F901199465E093
:101DA000FBCF64E0F9CF66E0F7CF62E0F5CF6AE001
:101DB000F3CF68E0F1CF69E0EFCFCF93DF93EC0191
:101DC000CB01BA0126E030E040E050E00E94F5404F
:101DD000623071058105910589F16CF46115710519
:101DE00081059105D1F06130710581059105F9F00A
:101DF000DF91CF910895643071058105910561F1FE
:101E000024F1653071058105910591F7E881F9812B
:101E10000284F385E02D66E006C0E881F981028442
:101E2000F385E02D64E0CE01DF91CF911994E88134
:101E3000F9810284F385E02D65E0F5CFE881F98131
:101E40000284F385E02D61E0EECFE881F981028420
:101E5000F385E02D63E0E7CFE881F9810284F38523
:101E6000E02D62E0E0CFDC01ED91FC910284F3858E
:101E7000E02D4370552766277727423051056105CD
:101E8000710571F0433051056105710559F041301C
:101E900051056105710511F065E0199466E0FDCF0B
:101EA0006AE0FBCF69E0F9CFCF93DF93EC01CB0180
:101EB000BA0123E030E040E050E00E94F54061309C
:101EC00071058105910599F06230710581059105D3
:101ED000A9F0672B682B692BC1F4E881F981028492
:101EE000F385E02D64E0CE01DF91CF911994E88174
:101EF000F9810284F385E02D61E0F5CFE881F98175
:101F00000284F385E02D62E0EECFDF91CF9108955A
:101F1000DC01ED91FC910284F385E02D437055279F
:101F200066277727423051056105710571F043300E
:101F300051056105710559F0413051056105710583
:101F400011F062E0199463E0FDCF61E0FBCF60E047
:101F5000F9CFCF93DF93EC01E881F9810284F38517
:101F6000E02D8A8160E0811162E0CE011995E8815F
:101F7000F9810284F385E02D8A8161E0811163E0BB
:101F8000CE0119958CA59DA58230910538F0880F5A
:101F9000991F880F991F05970197F1F7E881F9813B
:101FA0000284F385E02D8A8160E0811162E0CE0138
:101FB000DF91CF911994CF93DF93EC0120E030E0D3
:101FC000A901688D798D8A8D9B8D0E941C431816FE
:101FD0002CF4E8A9F9A9DF91CF911994EAA9FBA9FA
:101FE000FACFCF92DF92EF92FF920F931F93CF938E
:101FF000DF93DC011796CC91C43039F0C83059F129
:10200000C33019F0C63049F1C2E08C01085F1F4FA0
:10201000F12CE12CC62ED12CD1E0F8016481C6014F
:102020000E2C02C0959587950A94E2F780FD6D27E6
:102030000F5F1F4F80810E941A0CBFEFEB1AFB0A43
:10204000EC1658F3DF91CF911F910F91FF90EF9015
:10205000DF90CF900895C4E0D8CFC3E0D6CFDC01A5
:102060001796EC911797E93008F042C0F0E0882706
:10207000E35CFF4E8F4F0C94F94346104E10551001
:102080005C10631078106A1078107110ED91FC915B
:1020900011970684F785E02DCD011994ED91FC91FF
:1020A00011970088F189E02DF7CFED91FC91119700
:1020B0000288F389E02DF0CFED91FC91119704880F
:1020C000F589E02DE9CFED91FC9111970688F7890C
:1020D000E02DE2CFED91FC911197008CF18DE02D78
:1020E000DBCFED91FC911197028CF38DE02DD4CFD5
:1020F00008954F925F926F927F928F929F92AF92CC
:10210000BF92CF92DF92EF92FF920F931F93CF93E4
:10211000DF93EC01CC88DD88EE88FF888889998977
:10212000AA89BB89C81AD90AEA0AFB0A688D798D7F
:102130008A8D9B8D9B01AC010E9421434B015C0168
:1021400068A179A18AA19BA19B01AC010E94514188
:102150009B01AC01C501B4010E94C2410E943442FE
:10216000C114D104E104F10409F0B6C06230710574
:10217000810591050CF0D0C01B821C821D821E823D
:10218000188E198E1A8E1B8E1CAA1DAA1EAA1FAA93
:10219000C12CD12C7601C701B601DF91CF911F91DF
:1021A0000F91FF90EF90DF90CF90BF90AF909F90F6
:1021B0008F907F906F905F904F900895101611064A
:1021C00012061306B4F46C157D058E059F051CF4EC
:1021D0002A812111A1C09B01AC0188279927DC012C
:1021E000821B930BA40BB50B8CAB9DABAEABBFAB03
:1021F00093C0011511052105310509F48DC06C1539
:102200007D058E059F050CF087C08A81882309F41F
:1022100083C030952095109501951F4F2F4F3F4F4C
:102220000CAB1DAB2EAB3FAB77C0011511052105E3
:10223000310509F471C08824992454018C189D0833
:10224000AE08BF08681579058A059B050CF064C0C7
:102250008A81811161C0DDCFCCACDDACEEACFFACCE
:10226000A7019601C701B6010E9451412B013C0113
:10227000C501B4010E946C4220E030E040E850E427
:102280000E94214320E030E040E85FE30E9451419A
:102290009B01AC01C301B2010E94C2419B01AC0190
:1022A000C701B6010E9450413B016C01FE01E05C98
:1022B000FF4FE080F180028113819701A8010E9405
:1022C0001C43181614F473018601C701D8018CAFA2
:1022D0009DAFAEAFBFAF3AC00CA91DA92EA93FA9B3
:1022E0001C141D041E041F040CF468CF10161106E4
:1022F000120613060CF099CF0027112798010C192C
:102300001D092E093F0960177107820793070CF01A
:1023100062CF2A8121115FCF8CA89DA8AEA8BFA84B
:1023200081149104A104B10409F096CF88AD99AD50
:10233000AAADBBAD8CAF9DAFAEAFBFAF81E01C14FB
:102340001D041E041F040CF080E08A833FEF831AF3
:10235000930AA30AB30A8CAA9DAAAEAABFAA8CAC00
:102360009DACAEACBFACC501B4010E943B426B0159
:102370007C01CB82DC82ED82FE82A501940160E0CB
:1023800074E284E799E40E94C241688F798F8A8F52
:102390009B8F2A812111FFCE9058688F798F8A8F69
:1023A0009B8FF9CECF92DF92EF92FF920F931F9304
:1023B000CF93DF93EC016A017B0120E030E0A901BB
:1023C000CB01B6010E94BD4187FF04C0F7FAF0942B
:1023D000F7F8F094A70196016C8D7D8D8E8D9F8D01
:1023E0000E94BD41882309F446C0CC8EDD8EEE8E5E
:1023F000FF8E8E01005C1F4FA701960160E074E222
:1024000084E799E40E94C241F8016083718382836A
:1024100093838CA99DA9AEA9BFA9181619061A06FF
:102420001B064CF5688D798D8A8D9B8D9B01AC01C7
:102430000E9421436B017C0168A179A18AA19BA123
:102440009B01AC010E9451419B01AC01C701B60147
:102450000E94C2410E9434426CAB7DAB8EAB9FABFD
:10246000CE01DF91CF911F910F91FF90EF90DF9000
:10247000CF900C947910DF91CF911F910F91FF9025
:10248000EF90DF90CF90089508958B988A982091CF
:102490000201277820930201A5982EB1277C2EB93E
:1024A00070910201292F30E0F901A5E0EE0FFF1F26
:1024B000AA95E1F7E076E72BE09302017EB1F901FE
:1024C000EE0FFF1FEE0FFF1FE073E72BEEB974B3A3
:1024D000F901EE0FFF1FE072E72BE4BB7EB1F901BB
:1024E000F595E795F595E795E870E72BEEB97091CE
:1024F0000201E3E035952795EA95E1F72871272B4E
:10250000209302018998899A2091020127782093CB
:102510000201A5982EB1277C2EB9709102019C0171
:10252000F5E0880F991FFA95E1F78076872B809365
:1025300002017EB1C901880F991F880F991F80730E
:10254000872B8EB974B3C901880F991F8072872BAE
:1025500084BB7EB1C90195958795959587958870BF
:10256000872B8EB980910201F3E035952795FA9576
:10257000E1F72871282B209302018998899A8A9A79
:10258000FA01615008F43EC0819190910201977860
:1025900090930201A5989EB1977C9EB9409102014B
:1025A00090E09C0155E0220F331F5A95E1F7207609
:1025B000242B209302014EB19C01220F331F220FC6
:1025C000331F2073242B2EB944B39C01220F331FD9
:1025D0002072242B24BB4EB19C013595279535954F
:1025E00027952870242B2EB92091020133E0959570
:1025F00087953A95E1F78871822B8093020189983B
:10260000899ABFCF8B9A0895DF92EF92FF920F9332
:102610001F93CF93DF93CDB7DEB768970FB6F894CB
:10262000DEBF0FBECDBF7C018B01F70184913196D7
:10263000D490F2E0EF0EF11C8F3779F0DE011196A5
:1026400030E020E0AD012D1528F5F701E20FF31F72
:10265000E491ED932F5F3F4FF6CF6D2D70E090E04A
:1026600080E00E94C60CD12CED2DF0E032960E1BBE
:102670001F0B10161106CCF268960FB6F894DEBF49
:102680000FBECDBFDF91CF911F910F91FF90EF90C3
:10269000DF900895ED0CF11C6D2D90E00E94451225
:1026A000E3CF8B988A98E2E0F1E0208127782083BD
:1026B000A5982EB1277C2EB9A081292F30E0A90141
:1026C000B5E0440F551FBA95E1F740764A2B408399
:1026D000AEB1A901440F551F440F551F40734A2B3B
:1026E0004EB9A4B3A901440F551F40724A2B44BBF5
:1026F000AEB1A901559547955595479548704A2B18
:102700004EB9408153E0359527955A95E1F72871E8
:10271000242B20838998899A208127782083A59863
:102720002EB1277C2EB940819C01A5E0880F991F0E
:10273000AA95E1F78076842B80834EB1C901880F7A
:10274000991F880F991F8073842B8EB944B3C901D8
:10275000880F991F8072842B84BB4EB1C901959557
:102760008795959587958870842B8EB98081B3E085
:1027700035952795BA95E1F72871282B20838998FC
:10278000899A8A9A808187788083A5988EB1877C80
:102790008EB94081872F90E09C0155E0220F331FB6
:1027A0005A95E1F72076242B20834EB19C01220F0D
:1027B000331F220F331F2073242B2EB944B39C01E7
:1027C000220F331F2072242B24BB4EB19C01359560
:1027D0002795359527952870242B2EB92081A3E0C5
:1027E00095958795AA95E1F78871822B80838998C2
:1027F000899A808187788083A5988EB1877C8EB9ED
:102800004081CB019B01B5E0220F331FBA95E1F760
:102810002076242B20834EB19B01220F331F220FE1
:10282000331F2073242B2EB944B39B01220F331F77
:102830002072242B24BB4EB19C01359527953595EC
:1028400027952870242B2EB92081A3E09595879594
:10285000AA95E1F78871822B80838998899A8B9A4F
:10286000089581E080932C04E1E0F1E080818867A5
:1028700080839D9A8DB188638DB9809A819A829A5E
:10288000839A849A8B9A889A899A8C9A62E370E0E8
:1028900080E090E00E94C60C8C9864E670E080E0D6
:1028A00090E00E94C60C8C9A64E670E080E090E0B4
:1028B0000E94C60C70E060E080EB90E00C94511335
:1028C0000F931F93CF93DF93EC01162F80912C046D
:1028D000811102C00E9431148B988A988091020164
:1028E000877880930201A5988EB1877C8EB98091FC
:1028F0000201809302018EB18EB984B384BB8EB184
:102900008EB980910201809302018998899A809101
:102910000201877880930201A5988EB1877C8EB9D9
:1029200020910201CE01A5E0880F991FAA95E1F739
:102930008076822B809302012EB1CE01880F991FE1
:10294000880F991F8073822B8EB924B3CE01880F14
:10295000991F8072822B84BB2EB1CE0195958795ED
:10296000959587958870822B8EB98091020143E0FE
:10297000D595C7954A95E1F7C871C82BC093020158
:102980008998899A8A9A80910101877880930101B8
:102990009D988DB1877C8DB961E070E080E090E01A
:1029A0000E94C60C889A889888988898609100013F
:1029B000ECB1C2B32CB100910001889A889A889832
:1029C00088988898409100015CB1A2B39CB1B09105
:1029D0000001889A115030F7889A8B9A80910101F2
:1029E0008867809301019D9A8DB188638DB984E0D9
:1029F000289F900111242072332788E0089F8001CE
:102A00001124007C1127202BD0E0D595C795C071EB
:102A1000DD272C2BF0E0F595E795F595E795EC7023
:102A2000FF272E2B70E0E5E075956795EA95E1F7B5
:102A300063707727262B64E0969FC0011124807273
:102A400098E0B99FB0011124607C862BA695A071F7
:102A50008A2B569556955C70852B50E0F5E0559580
:102A60004795FA95E1F74370842B922FDF91CF9130
:102A70001F910F910895FF920F931F93CF93DF93B0
:102A80008C0160E00E946014EC0161E0C8010E94CA
:102A90006014F82E62E0C8010E946014AE0170E07C
:102AA00060E0742F66275527442700E030E020E0DF
:102AB000402B5F29622B732B292F30E0C901B0E036
:102AC000A0E08A019B01082B192B2A2B3B2BC90163
:102AD000B801DF91CF911F910F91FF9008950F934F
:102AE0001F93CF93DF938C0160E00E946014EC0190
:102AF00061E0C8010E9460148C01BE0190E080E09A
:102B0000CB017727662730E020E0602B712B822BEA
:102B1000932BDF91CF911F910F9108950F931F93E6
:102B2000CF93DF93EC018B01FE0185919491FE011F
:102B300032962496659174918F3F980771F490E0D6
:102B400080E00E94C60C045011091016110664F3AF
:102B5000DF91CF911F910F9108950E945113F3CFF0
:102B6000FC01262F358D868D82958170982F9627B2
:102B7000692F70E072A361A330FF0CC0821307C0FD
:102B800080E290E050E040E060E00C94451281E289
:102B900090E0F8CF878D90A1873222E99207C0F4A8
:102BA000853222E9920758F4803224E59207B9F081
:102BB000833927E7920799F084359140A1F4660F95
:102BC000771F660F771F636187E090E00C945113C5
:102BD000863223E9920719F08930954B21F462601F
:102BE00081E094E0F3CF81E690E0F0CF8F929F9266
:102BF000AF92BF92CF92DF92EF92FF920F931F930B
:102C0000CF93DF9300D01F92CDB7DEB77C014B018D
:102C10005A016901FC01878D90A18732F3E99F0772
:102C200009F040C0F7018689823099F5F0E2AF0ED5
:102C3000B11C005E1F4FF701858D80FF4AC085A53E
:102C400099828A82DB82CC82AE014F5F5F4F64E063
:102C500090E00E944512F70181A9B982AA821B83E4
:102C60000C83AE014F5F5F4F64E090E00E9445121D
:102C70000F900F900F900F90DF91CF911F910F91B8
:102C8000FF90EF90DF90CF90BF90AF909F908F908C
:102C90000895833081F620E2820E911C80E2C80EF6
:102CA000D11CC9CF8632954131F6F701868980FF64
:102CB000C2CFC801841B950B19F40F5F1F4FBBCF08
:102CC0006217730709F0B7CF6B01C80ED91E8A01CE
:102CD000B2CFB40187A190A50E945113B501F701AD
:102CE00081A592A50E945113C814D90421F40A1594
:102CF0001B0509F4BDCFF701858D85FF08C08689C6
:102D000080FF1EC0102F0027A02AB12A8501B40120
:102D1000F70185A596A50E945113B501F70181A978
:102D200092A90E945113B601F70187A590A90E94AC
:102D30005113B801F70183A994A90E94511398CFA8
:102D4000DC2CCC248C289D286401E1CFAF92BF926B
:102D5000CF92DF92EF92FF920F931F93CF93DF9367
:102D6000EC0180911B04882349F0C701880F991F4B
:102D70008E739927E1ECEE22E82AF92A37FF05C085
:102D8000620F731F319521953109260F371F77FF89
:102D900002C070E060E088859985281739070CF437
:102DA000C9016C01C61AD70A17FF05C0400F511F91
:102DB000119501951109040F151F57FF02C050E02E
:102DC00040E02A853B85021713070CF4980159014E
:102DD000A41AB50A8901015011099C012150310939
:102DE000CE010E94F6158B988A985BA54CA5809120
:102DF0000201877880930201A5988EB1877C8EB9F5
:102E000060910201842F90E09C01F5E0220F331FB6
:102E1000FA95E1F72076262B209302016EB19C01F2
:102E2000220F331F220F331F2073262B2EB964B3BA
:102E30009C01220F331F2072262B24BB6EB19C01F4
:102E400035952795359527952870262B2EB92091F5
:102E5000020103E0959587950A95E1F78871822B29
:102E6000809302018998899A8091020187788093E2
:102E70000201A5988EB1877C8EB960910201852FE1
:102E8000942F9C0145E0220F331F4A95E1F72076ED
:102E9000262B209302014EB19C01220F331F220FDB
:102EA000331F2073242B2EB944B39C01220F331FF0
:102EB0002072242B24BB4EB19C0135952795359566
:102EC00027952870242B2EB920910201E3E09595D7
:102ED0008795EA95E1F78871822B809302018998A2
:102EE000899A8A9ACA14DB042CF09A2D8B2D5601EC
:102EF000C92ED82E8F2D99279C0145E0220F331F14
:102F00004A95E1F72076AC01440F551F440F551F39
:102F1000342F3073AC01440F551F4072BC017595BE
:102F2000679575956795562F5870F3E09595879539
:102F3000FA95E1F78871B701A5E0660F771FAA95AA
:102F4000E1F7962F9076B701660F771F660F771F10
:102F50006073F701EE0FFF1F7E2F7072D701B595DA
:102F6000A795B595A795A870E3E0F594E794EA9541
:102F7000E1F7EE2DE871EE2E1C141D040CF043C099
:102F8000F501B0910201B778B0930201A598BEB1E6
:102F9000B77CBEB9B0910201B22BB0930201BEB1B1
:102FA000B32BBEB9B4B3B42BB4BBBEB1B52BBEB951
:102FB000B0910201B82BB09302018998899AB0911F
:102FC0000201B778B0930201A598BEB1B77CBEB933
:102FD000B0910201B92BB0930201BEB1B62BBEB9BC
:102FE000B4B3B72BB4BBBEB1BA2BBEB9B09102011A
:102FF000BE29B09302018998899A319711F6E1E0D0
:10300000CE1AD108B9CF8B9A8D8D80FF08C08F8DD5
:1030100098A18632954191F48E8980FF0FC00A8570
:103020001B8501501109288539852150310950E04F
:1030300040E070E060E0CE010E94F615DF91CF9194
:103040001F910F91FF90EF90DF90CF90BF90AF90C6
:103050000895EF92FF920F931F93CF93DF937C011C
:10306000E90177FD2AC057FD28C0FC0180859185C4
:103070006817790714F58285938548175907ECF48A
:1030800080911B04882341F0C901880F991F8E731A
:103090009927C17CC82BD92B8A019B01C7010E94AB
:1030A000F615BE01F70183A594A5DF91CF911F917D
:1030B0000F91FF90EF900C945113DF91CF911F91DE
:1030C0000F91FF90EF900895EF92FF920F931F934F
:1030D000CF93DF9300D000D000D01F92CDB7DEB7E2
:1030E0007C01862F8370F701868B962F917060FF8D
:1030F000F1C026813781F70131872087992309F4B0
:10310000ECC024813581F70133872287823009F4AE
:10311000E9C0833009F4E8C0813009F4E1C088E4F3
:103120008A87F701258D368D30FF03C08A85805848
:103130008A8731FF04C08A8590E489278A8733FF14
:1031400004C08A8598E089278A87F701878D90A136
:1031500020FFFAC08431F8E69F0709F0C7C09A85BE
:10316000892F88728A871F82892F85958074282FDE
:103170002260892F90E09595879580729927822B00
:1031800088878BE38987AE01495F5F4F63E086EBF9
:1031900090E00E9445122AE230E0F70130A727A311
:1031A0008BE290E092A781A74CE250E054A743A79E
:1031B00036A725A730AB27A792AB81AB94AB83ABE7
:1031C000AE01465F5F4F61E086E390E00E944512EA
:1031D0008A8590E0F70194A383A3F701868980FF95
:1031E0001CC0858D968D92FD18C087A190A521A544
:1031F00032A530A727A392A781A785A596A521A9C7
:1032000032A936A725A792AB81AB87A590A923A9A0
:1032100034A930AB27A794AB83ABF70102851385A4
:1032200001501109208531852150310950E040E0DD
:1032300070E060E0C7010E94F615F70166817781B2
:10324000878D90A110E000E020E08732F3E99F072E
:1032500069F4F7012689225010E000E0223010F4D2
:1032600000E210E020E230E0201B310BF701458D39
:1032700040FF24C119820A837B836C831D822E83C5
:10328000AE014F5F5F4F66E083E390E00E9445121E
:1032900019820A83AE014F5F5F4F62E087E390E0DF
:1032A0000E944512F701858D80FF07C050E040E085
:1032B00060E083E190E00E9445122A960FB6F894F0
:1032C000DEBF0FBECDBFDF91CF911F910F91FF9059
:1032D000EF900895248135810ECF2681378113CF59
:1032E00088E21ECF88E91CCF88EF1ACF833629E108
:1032F000920749F0813844E9940729F08131E5E1EA
:103300009E0709F048CF2A8527FF02C021602A873F
:103310002A8526FF02C022602A878336F9E19F07AB
:1033200021F48A858F738A8736CF813824E9920702
:1033300019F48A858F72F7CF8131954109F02BCF2F
:103340008A858F7E806CEFCF6A85262F062E000C33
:10335000330B8339F7E79F0761F008F042C08435EB
:10336000E1E09E0709F46AC08032F4E59F0709F0A6
:1033700041C040E052E0F70150A747A341E052E0CE
:1033800052A741A742E052E054A743A740E152E0D0
:1033900056A745A741E152E050AB47A742E152E0B2
:1033A00052AB41AB43E152E054AB43AB2227307800
:1033B0008632F3E99F0729F060E07AE6803294458F
:1033C00011F460E075E3622B732B80E094E00E94BF
:1033D00051136A85F4E06F9FB00111246627717064
:1033E00055C0863243E9940721F28930E5EB9E0708
:1033F00009F4BFCF80E290E0F70190A787A381E2B4
:1034000090E092A781A782E290E094A783A780E54D
:1034100090E096A785A781E590E090AB87A782E52D
:1034200090E092AB81AB83E590E094AB83ABB901C4
:1034300066277078776280E690E0C9CF87E390E0F6
:10344000F70196A785A786E390E090AB87A789E36D
:1034500090E092AB81AB88E390E094AB83AB80E2E9
:1034600090E090A787A381E290E092A781A782E2F3
:1034700090E094A783A7F4E06F9FB0011124662722
:103480007170222732702862622B732B81E090E0EA
:103490000E9451138A85682F70E075956795759520
:1034A00067956870772783FD70616063F70174A387
:1034B00063A383E090E00E9451138FCE8339F7E736
:1034C0009F0789F1F8F4803244E5940761F183386D
:1034D000E7E79E07A1F184359140E9F4600F711F81
:1034E0006150710981E390E00E945113B80182E3B9
:1034F00090E00E94511370E060E083E390E00E944E
:103500005113DBCE863223E9920769F048F48552E5
:103510009249029718F3F70161A172A1626012C08B
:103520008930954BC1F7F70161A172A1626081E01A
:1035300094E00E945113B80184E094E0E0CFF701D9
:1035400061A172A181E690E00E945113B8018AE660
:1035500090E0D5CFEF92FF920F931F93DC01ED9196
:10356000FC9100A0F1A1E02D780101E010E0199597
:103570001F910F91FF90EF900895EF92FF920F939C
:103580001F93DC01ED91FC9100A0F1A1E02D7801E9
:10359000890121E030E019951F910F91FF90EF9084
:1035A00008952091D103260F3327331F213231058F
:1035B000ECF42091F503FC0190E080E0243069F008
:1035C00082E00895A091D1032191AC014F545C4F4A
:1035D000A40FB52FB11D2C930196861798F38091F7
:1035E000D103680F6093D10380E0089581E00895CE
:1035F0008FEF9FEF08958FEF9FEF08958091AA03BB
:1036000090E09195819591090895CF93DF93CB0137
:10361000EA01642F0E94D11ACE01DF91CF91089563
:10362000CF93DF931F92CDB7DEB7698361E0CE0100
:1036300001960E94D11A81E090E00F90DF91CF9126
:103640000895FC01248D211102C0858D089580E02C
:103650000895FC01848D882319F0858D91E08927D8
:103660000895FC018281938168177907A4F026816F
:103670003781820F931F681779076CF42481358195
:103680004217530744F080859185280F391F81E048
:10369000421753070CF080E008950895FC01637011
:1036A000668B8481958126813781613039F0633062
:1036B00029F0918780873387228708953187208773
:1036C0009387828708952F923F924F925F926F92D5
:1036D0007F928F929F92AF92BF92CF92DF92EF92A2
:1036E000FF920F931F93CF93DF93CDB7DEB76A9707
:1036F0000FB6F894DEBF0FBECDBF9A8F898F7A8345
:1037000069834A01D22E18870F833701BC2CDC0154
:1037100059962D913C915A972115310509F015C103
:1037200018968D919C911997681779070CF0D7C15D
:103730001A968D919C91481759070CF0D0C14C2CCA
:10374000512CB6E0CB9E600D711D11247C876B87D8
:10375000161617060CF0C3C1EA2DF0E0FA87E987C8
:1037600093E0EE0FFF1F9A95E1F7F88BEF87CF01FB
:10377000840F951F181619060CF0B1C1A98DBA8DCA
:1037800058968C91811104C0BFEABD1508F4D394FA
:10379000A98DBA8DED91FC9111970284F385E02DEE
:1037A000CD011995B5E0DB9EC0011124E981FA81B4
:1037B000FC83EB83312C212C9C012C5F3D4F388FF7
:1037C0002F8B4A2D50E05E8B4D8BEF89F88DE20DEB
:1037D000F31D44919E828D82D12CC12C69817A8106
:1037E000620D731D7A8B698B842F90E09C8B8B8B81
:1037F000E98DFA8DA081B18140FF82C0F1E0BF1256
:103800006FC0AF126DC01C96ED91FC912F81388571
:10381000A4014C0D5D1D69897A89898D9A8D199550
:10382000EB89FC89F595E7954E2F5FEFC51AD50A10
:103830006D817E818D899E89680F791F7E836D835E
:1038400098E0C916D10481F6AFEF2A1A3A0AEB8143
:10385000FC81E40DF51DFC83EB83F5E02F163104AC
:1038600009F0B3CF2F81388526153705B9F0A98D1A
:10387000BA8DED91FC91B1E0BB1257C0AB1255C0AF
:1038800069817A816B5F7F4F0088F189E02D830128
:1038900028E030E0A401898D9A8D1995A98DBA8D03
:1038A000ED91FC9111970688F789E02DCD016A967C
:1038B0000FB6F894DEBF0FBECDBFDF91CF911F9141
:1038C0000F91FF90EF90DF90CF90BF90AF909F90BF
:1038D0008F907F906F905F904F903F902F901994B2
:1038E0001E96ED91FC91EF80F88409851A8592016E
:1038F0004D815E816B817C81898D9A8D199590CFE8
:103900002F8138852615370509F48ACF31E0B312A7
:1039100007C0A31205C01C96ED91FC91930178CFCE
:103920001E96ED91FC917301E0CF6B857C85641947
:1039300075090684F785E02D73010F8518899201BA
:10394000A401898D9A8D1995A9CFF9013496949186
:10395000329745915491D91AB7E0DB9E400D511D25
:103960001124F901259134913C8B2B8BFA01259080
:103970003490FA013296749031963491398B3296A4
:1039800064903196449041E04C1518F04A1508F0C7
:103990007FC0662D062C000C770B7C836B83842DF7
:1039A000042C000C990B9E838D83A98DBA8DED910B
:1039B000FC9111970284F385E02DCD011995512CCE
:1039C000D12CC12CEA2DF0E0FA87E9872B2D30E0CD
:1039D0003C872B87A401440D511D47FC5A95588FF5
:1039E0004F8B69817A81660D711D67FC7A957E87A0
:1039F0006D877989C71608F051CF2C2D30E04D81A5
:103A00005E81420F531FA985BA854A9FC0014B9F13
:103A1000900D5A9F900D1124FC01E80DF91DF88BB3
:103A2000EF87852D612C4F89588D420F531F5E8B78
:103A30004D8B671408F050C044244394480E87709F
:103A400041F4C1010196EB89FC89E20DF31DD4908C
:103A50001C01D7FE19C0A98DBA8DED91FC91662D80
:103A600070E0B1E0BB1219C0AB1217C02D853E85C6
:103A7000620F731F0484F585E02D2F8138854D89F1
:103A80005E89898D9A8D1995DD0C6394842DD1CF33
:103A90001E821D821C821B8288CF4B815C81640F39
:103AA000751FAB85BC856A9FC0016B9F900D7A9F87
:103AB000900D112469817A81680F791F0684F7853A
:103AC000E02DEF80F88409851A859D014F8558897E
:103AD000898D9A8D1995D8CF570CC3948ACF6A9641
:103AE0000FB6F894DEBF0FBECDBFDF91CF911F910F
:103AF0000F91FF90EF90DF90CF90BF90AF909F908D
:103B00008F907F906F905F904F903F902F9008958F
:103B10008F929F92AF92CF92EF92FF920F931F934B
:103B2000CF93DF93EC01262F898D9A8D009709F0B2
:103B300051C06A30D1F41D861C868D8948E0849F6F
:103B4000900111248E859F85820F931F9F878E87FA
:103B500081E090E0DF91CF911F910F91FF90EF9066
:103B6000CF90AF909F908F9008956D3089F3CC885F
:103B7000AD888F898823C1F08C859D8536E0C39EF2
:103B8000800D911D1124488559854817590764F403
:103B90004E855F851D861C8638E0A39EC0011124DA
:103BA000840F951F9F878E87EA88FB88088919896B
:103BB0004E855F856C857D85CE010E94631B2C89B7
:103BC0008C859D8546E0249F800D911D11249D8745
:103BD0008C87BECF6A3069F41D861C86FC0138963E
:103BE000E4912D898E859F85E29F800D911D112482
:103BF000ADCF6D3009F4ACCFFC013496349163172E
:103C000008F4A6CF3296E491E61708F4A1CFFC01A0
:103C1000329685909490462F431B342F47E0349F73
:103C2000800C911C1124F401329634913196E49168
:103C30003323A9F1EE2399F1CC88F4013596E49170
:103C4000AD884F89442301F10E2E000CFF0BE30FCA
:103C5000F11DCE9EA001CF9E500D11246C857D8557
:103C6000460F571F68857985641775076CF44E8574
:103C70005F851D861C86FC013896E491AE9E400D42
:103C8000511D11245F874E87EA88FB8808891989AE
:103C90004E855F856C857D85CE010E94631BF40196
:103CA0003496E4912C898C859D85E29F800D911D31
:103CB00011248DCF6F927F928F929F92AF92BF927D
:103CC000CF92DF92EF92FF920F931F93CF93DF93E8
:103CD000EC016B015A0139014801E881F981028444
:103CE000F385E02D1995E881F9810288F389E02DAB
:103CF00087019301A501B601CE011995A501480DD3
:103D0000591D41505109E881F9810288F389E02D5C
:103D10009301B601CE011995E881F9810088F189F6
:103D2000E02D9401A501B601CE011995C60CD71C52
:103D3000B60161507109E881F9810088F189E02DAF
:103D40009401A501CE011995E881F9810688F789CA
:103D5000E02DCE01DF91CF911F910F91FF90EF9059
:103D6000DF90CF90BF90AF909F908F907F906F909B
:103D700019942F923F924F925F926F927F928F92FF
:103D80009F92AF92BF92CF92DF92EF92FF920F93EA
:103D90001F93CF93DF93CDB7DEB72D970FB6F8946F
:103DA000DEBF0FBECDBF5C011B0158874F833D872F
:103DB0002C870987FC82EB82360181E090E06C0160
:103DC000C21AD30AC9019195819591099C01220FCC
:103DD000331F3A832983C70101969E838D83F12C7B
:103DE000E12C44244394512CDA011196BB87AA8715
:103DF0002C853D85E216F3060CF070C08C849D8402
:103E0000D7FC0BC0490131E0831A910889819A815E
:103E100002969A838983C80ED91E9FEFE91AF90A80
:103E2000A2E04A0E511CC40CD51C8E149F0444F40D
:103E30002C853D8528153905F1F49D868C86D8CFD3
:103E40009401220F331F4F81588548195909D50114
:103E5000ED91FC91B9858D819E81280F391F0088D5
:103E6000F189E02D8301B101B13009F56E0D7F1D9F
:103E7000C5011995DDCF9985913019F59201225030
:103E80003109AB81BC812A0F3B1F6C857D85620D9A
:103E9000731DD501ED91FC910088F189E02D83011E
:103EA0004A855B854E195F09C5011995C6CF6E1904
:103EB0007F09C5011995AC85BD85A815B90509F41B
:103EC000BCCF9201225031098B819C81280F391F70
:103ED000B101AC85BD856A1B7B0BDBCF2D960FB680
:103EE000F894DEBF0FBECDBFDF91CF911F910F9130
:103EF000FF90EF90DF90CF90BF90AF909F908F900A
:103F00007F906F905F904F903F902F9008952F92E9
:103F10003F924F925F926F927F928F929F92AF9259
:103F2000BF92CF92DF92EF92FF920F931F93CF93A6
:103F3000DF9300D000D0CDB7DEB79E838D834B01D9
:103F40003A016901802F21E030E029014C185D0819
:103F5000222433242C183D08220C331CB12CA12C14
:103F600001E010E0982F94709983A82FA270AA8383
:103F7000B82FB870BB8381708C83AC14BD040CF077
:103F8000A7C057FC08C081E0C81AD10892E0290EEA
:103F9000311C420C531CAFEFAA1ABA0A0E5F1F4F16
:103FA000400E511EB981BB2311F1AD81BE81ED914F
:103FB000FC9111970484F585E02D9701A601460D2B
:103FC000571DB4016A0D7B1DCD011995AD81BE81D0
:103FD000ED91FC9111970484F585E02D9701A301E3
:103FE0004A0D5B1DB601680D791DCD011995BA8189
:103FF000BB2311F1AD81BE81ED91FC911197048439
:10400000F585E02D9701A3014C195D09B4016A0DF6
:104010007B1DCD011995AD81BE81ED91FC9111976C
:104020000484F585E02D9701A3014A195B09B601C7
:10403000680D791DCD011995BB81BB2311F1AD81AF
:10404000BE81ED91FC9111970484F585E02D9701D7
:10405000A3014A0D5B1DB4016C197D09CD011995B1
:10406000AD81BE81ED91FC9111970484F585E02D21
:104070009701A601460D571DB4016A197B09CD01B0
:104080001995BC81BB2309F478CFAD81BE81ED9138
:10409000FC9111970484F585E02D9701A3014A193D
:1040A0005B09B4016C197D09CD011995AD81BE8103
:1040B000ED91FC9111970484F585E02D9701A30102
:1040C0004C195D09B4016A197B09CD01199555CFC9
:1040D00026960FB6F894DEBF0FBECDBFDF91CF910D
:1040E0001F910F91FF90EF90DF90CF90BF90AF9016
:1040F0009F908F907F906F905F904F903F902F9008
:1041000008952F923F924F925F926F927F928F927B
:104110009F92AF92BF92CF92DF92EF92FF920F9356
:104120001F93CF93DF9300D000D01F921F92CDB783
:10413000DEB75C017A8369832A01490138012017BF
:1041400031070CF0BFC03C832B83C90137FDBFC0D2
:10415000AB81BC81B595A795BC83AB838B819C81DA
:1041600098878F83E816F90614F4F886EF82D50154
:10417000ED91FC910284F385E02DC50119958F81A5
:104180009885880F991F9C838B837401E81AF90A1C
:1041900029803A80AF81B8852A0E3B1ED501ED916A
:1041A000FC910288F389E02D86019701A201B101FB
:1041B000C5011995C301840D951D9E838D83AC01A6
:1041C00041505109D501ED91FC910288F389E02D10
:1041D0009701B101C50119958B819C81681A790AF3
:1041E000AF81B8854A0E5B1ED501ED91FC91008828
:1041F000F189E02D9301A20169817A81C5011995A8
:1042000089819A81880E991EB40161507109D50186
:10421000ED91FC910088F189E02D9301A201C50187
:104220001995760101E02F813885A201B101C50100
:104230000E94871F8F819885881A990A91E0891AB0
:10424000910802E02F813885A201B401C5010E94C6
:10425000871F6D807E80AF81B8856A1A7B0AB1E0C6
:104260006B1A710804E02F813885A301B401C501E0
:104270000E94871F08E02F813885A301B101C50185
:104280000E94871FD501ED91FC910688F789E02DEA
:10429000C50128960FB6F894DEBF0FBECDBFDF91E3
:1042A000CF911F910F91FF90EF90DF90CF90BF9033
:1042B000AF909F908F907F906F905F904F903F90C6
:1042C0002F9019941C830B8317FF42CFC8010196CE
:1042D0009C838B833DCF6F927F928F929F92AF9200
:1042E000BF92CF92DF92EF92FF920F931F93CF93E3
:1042F000DF935C01EB016A01490138018701DC01B0
:10430000ED91FC916217730719F5641675062CF090
:10431000962D872D3A01C92ED82E960126193709D8
:104320002F5F3F4F048CF58DE02DA301BE01C50129
:104330001995DF91CF911F910F91FF90EF90DF9032
:10434000CF90BF90AF909F908F907F906F90089587
:104350004615570591F42617370724F0892D4B0190
:10436000C22FD82F9E01281939092F5F3F4F068C85
:10437000F78DE02DA601B401DACF0284F385E02D9C
:104380001995D501ED91FC910488F589E02D830103
:104390009401A601BE01C5011995D501ED91FC91CD
:1043A0000688F789E02DC501DF91CF911F910F910C
:1043B000FF90EF90DF90CF90BF90AF909F908F9045
:1043C0007F906F901994EF92FF920F931F93DC01EF
:1043D0001A960D911C911B9718962D913C91199747
:1043E000ED91FC9100A0F1A1E02D7B0150E040E0B7
:1043F00070E060E019951F910F91FF90EF90089584
:104400004F925F926F927F928F929F92AF92BF92E4
:10441000CF92DF92EF92FF920F931F93CF93DF9390
:104420006C012B015A0139014801DC01ED91FC912D
:104430000284F385E02D1995E201640C751CD60108
:10444000ED91FC91C615D7055CF40088F189E02D4B
:1044500087019401A501BE01C60119952196EFCFF0
:104460000688F789E02DC601DF91CF911F910F914A
:10447000FF90EF90DF90CF90BF90AF909F908F9084
:104480007F906F905F904F9019948F929F92AF9210
:10449000BF92CF92DF92EF92FF920F931F93CF9331
:1044A000DF93EC015B014A016901E881F981028433
:1044B000F385E02D199595012C0D3D1D21503109F5
:1044C000E881F9810488F589E02D78018401A4014F
:1044D000B501CE011995E881F9810688F789E02DAB
:1044E000CE01DF91CF911F910F91FF90EF90DF9060
:1044F000CF90BF90AF909F908F9019948F929F9282
:10450000AF92BF92CF92DF92EF92FF920F931F93E1
:10451000CF93DF93EC015B014A0169017801E881E7
:10452000F9810284F385E02D1995C80CD91C860108
:1045300001501109E881F9810488F589E02D950180
:10454000A401B501CE011995E881F9810688F789A2
:10455000E02DCE01DF91CF911F910F91FF90EF9051
:10456000DF90CF90BF90AF909F908F901994EF9273
:10457000FF920F931F93DC01ED91FC9100A0F1A13C
:10458000E02D19951F910F91FF90EF9008950F93D3
:104590001F93DC01ED91FC91068CF78DE02D1995B0
:1045A0001F910F9108950F931F93DC01ED91FC91E2
:1045B000048CF58DE02D19951F910F910895DC0164
:1045C000ED91FC910084F185E02D19943F924F927A
:1045D0005F926F927F928F929F92AF92BF92CF9293
:1045E000DF92EF92FF920F931F93CF93DF9300D050
:1045F0001F92CDB7DEB73C016B014A015901290179
:1046000087E0480E511C93E0559447949A95E1F742
:10461000CB01800F911F9A83898310E000E0312C39
:104620001C821B828B819C8187709927330C892B7C
:1046300061F4EB81FC8183E0F595E7958A95E1F7DC
:10464000E00FF11FE80DF91D349037FE0AC0970105
:10465000A6016B817C81660D771D84EA95E00E943E
:10466000DF228B819C8101969C838B83A816B906DF
:10467000C9F69FEFC91AD90A040D151D89819A81BF
:10468000C816D90669F60F900F900F900F90DF9122
:10469000CF911F910F91FF90EF90DF90CF90BF903F
:1046A000AF909F908F907F906F905F904F903F90D2
:1046B00008952F923F924F925F926F927F928F92C6
:1046C0009F92AF92BF92CF92DF92EF92FF920F93A1
:1046D0001F93CF93DF9300D000D0CDB7DEB73C015E
:1046E0006A013E832D83FC82EB825801A41AB50A2D
:1046F000B7FE03C0B194A194B1088D809E80861A44
:10470000970A97FE03C09194819491088A149B04A0
:104710005CF0902F812F0D811E819D838E839C2DB7
:104720008D2D6B01692F782F0C151D055CF09D8177
:104730008E817E836D83692F782F902F812F860144
:10474000C92ED82E1601201A310A2B012D813E8147
:10475000421A530A57FE03C0519441945108710103
:1047600037FE03C03FEFE31AF30AF594E7948D8117
:104770009E81861797075CF5A1E0B0E0BA83A98314
:10478000C016D1064CF1D301ED91FC910484F5855E
:10479000E02D2B813C81A8016D817E818A149B04D0
:1047A0001CF04D815E81B801C3011995E418F5082C
:1047B000F7FE0AC02D813E8189819A81280F391F19
:1047C0003E832D83E20CF31C0F5F1F4FD9CF2FEFD9
:1047D0003FEF3A832983D4CF26960FB6F894DEBFF5
:1047E0000FBECDBFDF91CF911F910F91FF90EF9042
:1047F000DF90CF90BF90AF909F908F907F906F9001
:104800005F904F903F902F900895089590E080E042
:1048100008952F923F924F925F926F927F928F9264
:104820009F92AF92BF92CF92DF92EF92FF920F933F
:104830001F93CF93DF936091A10570E0FB01E852D5
:10484000FA4E049180919E05A82FB0E0FD01E85238
:10485000FA4EC4914091A00550E0FA01E852FA4E98
:10486000C49020919F0530E0F901E852FA4EE4909F
:10487000FB01E25EF94E5490FD01E25EF94EB49008
:10488000FA01E25EF94ED490F901E25EF94E3490FD
:1048900060E00E94480C60E080919F050E94480CF7
:1048A000D0E0CC0FDD1FCC55DA4EFE01A591B491BE
:1048B0008C912B2C209482218C93F12CEE0CFF1CDC
:1048C000C7018C559A4E7C01FC01A591B4919C9135
:1048D000832D809589238C9361E08091A1050E94AE
:1048E000480C61E08091A0050E94480C10E0000F88
:1048F000111F0C551A4EF801A591B4918C91852980
:104900008C93EC2DF0E0EE0FFF1FEC55FA4EA591C5
:10491000B491EC91D094DE22DC9280919E050E94AD
:10492000840C4C0180919E050E94840C6C018FEFD9
:1049300093E03C016C187D0860E08091A1050E9425
:10494000480C60E08091A0050E94480CF801A591F8
:10495000B4918C91509485218C9361E080919E0557
:104960000E94480CFE01A591B491EC91BE2ABC9224
:1049700061E080919F050E94480C8091A0050E94F3
:10498000840C5C018091A0050E94840CA816B906D5
:1049900029F4442443948C149D0409F0412CCC2424
:1049A000CA9423E0D22E5601A81AB90A61E0809178
:1049B000A1050E94480CF801A591B491EC915E22EA
:1049C0005C92F701A591B491EC913E2A3C92FE01D4
:1049D000A591B4918C9128222C9260E080919E0543
:1049E0000E94480C8091A0050E94840CEC018091EB
:1049F0009E050E94840CBC010091A2051091A305A4
:104A00000115110509F4CBC0072E000C880B990B7A
:104A10000E946C426B017C01BE01DD0F880B990B7B
:104A20000E946C429B01AC01C701B6010E94C241C9
:104A300020E030E040E85FE30E9450416B017C01E0
:104A4000B301072C000C880B990B0E946C42A70144
:104A500096010E9421436B017C01B80190E080E047
:104A60000E946A42A70196010E94214320E030E0A3
:104A700040E85AE30E9421430E943442411002C0A0
:104A800070E060E07092CB046092CA04B092CD04F2
:104A9000A092CC047093CF046093CE0461E087E3CE
:104AA0000E94480C61E088E30E94480C61E087E3C3
:104AB0000E941A0C61E088E30E941A0C8091CE04D7
:104AC0009091CF0485569109C1E0833823E0920785
:104AD00008F0C0E08338934008F04DC0E091AC0589
:104AE000F091AD054091AE055091AF05BF010F2E7D
:104AF000000C880B990B2A01052E000C660877081C
:104B0000C090CA04D090CB040D2C000CEE08FF0816
:104B10008090CC049090CD04092C000CAA08BB080E
:104B20002EEA821A23E0920AA108B1084E175F0705
:104B3000ECF1A70196012B583340410951090E941D
:104B4000E9432DEF3CEF4FEF5FEF0E94F5403093CC
:104B50001D0420931C04A3019201C501B4010E940D
:104B6000E9432DED3CEF4FEF5FEF0E94F5403093AE
:104B70001F0420931E048C2FDF91CF911F910F9162
:104B8000FF90EF90DF90CF90BF90AF909F908F906D
:104B90007F906F905F904F903F902F9008956C1B87
:104BA0007D0BC601861B970BBC0168CFA501940144
:104BB0000E94E9432DED3CEF4FEF5FEF0E94F5407F
:104BC00030931D0420931C04A70196012858310935
:104BD00041095109C301B2010E94E94323E033E0D6
:104BE00040E050E0C2CFEF92FF920F931F93DC01A1
:104BF0001A960D911C911B9718962D913C9119971F
:104C0000ED91FC9100A0F1A1E02D7B0150E040E08E
:104C100070E060E019951F910F91FF90EF9008955B
:104C20000E942645FB0101900020E9F73197AF0172
:104C3000461B570BDC01ED91FC910280F381E02DC6
:104C400019946115710511F00C94122690E080E022
:104C500008952F923F924F925F926F927F928F9220
:104C60009F92AF92BF92CF92DF92EF92FF920F93FB
:104C70001F93CF93DF93CDB7DEB72E970FB6F8947F
:104C8000DEBF0FBECDBF9E878D87DC015096BC91E5
:104C9000B983FC01F189FA83DC011C960D90BC916B
:104CA000A02DBC87AB87FC0186849784662331F0F6
:104CB000982D892D89809A8099838A83AD85BE85B8
:104CC0001696CD90DC9017971896AD90BC90C601C3
:104CD000CA14DB0408F0C5019695879596958795CB
:104CE000ED85FE8540805180282F30E03C832B836A
:104CF00064807580828193819E838D83CA14DB04D6
:104D00002CF4C601D7FE05C0019603C0C501B7FC4F
:104D1000FBCF959587952B803C80821593050CF4ED
:104D20001C01D201ED91FC910284F385E02DC201BA
:104D30001995F101EE0FFF1FF887EF832D813E815A
:104D4000220D331D3A87298796012E1B3F0BD20176
:104D5000ED91FC910684F785E02D74018501A30196
:104D600069857A85C2011995EF81F885AE1ABF0A67
:104D7000F1E0AF1AB108620C731C6D817E816C0D7D
:104D80007D1D62197309615071096401750101E0AB
:104D90009101A301C2010E94B91E02E09101A30189
:104DA00069857A85C2010E94B91ED201ED91FC91FC
:104DB0000688F789E02DC2011995ED85FE850085ED
:104DC0001185268137814481558162817381CB842D
:104DD000DC84EB80FC80808191810E948120AD8504
:104DE000BE85ED91FC91119718968D919C91199724
:104DF0009695879514962D913C911597820F931F48
:104E00001B962C91B4E02B9F8019910911246D857C
:104E10007E856E5E7F4FDB010D900020E9F7AD01CE
:104E200041505109461B570BAD85BE8516962D91F5
:104E30003C9117973695279512960D911C911397D3
:104E4000200F311F1A960C9113E0019FD0011124FD
:104E5000A49F6001A59FD00CB49FD00C11242C19E5
:104E60003D093587248797878687AD85BE85ED9177
:104E7000FC91B981B28B1A81138BB08B118BAD85EC
:104E8000BE85ED91FC9111971B968C911B971A96FC
:104E90009C91911101C091E0948B811101C081E03E
:104EA000858BED85FE85808191812E960FB6F894D5
:104EB000DEBF0FBECDBFDF91CF911F910F91FF904D
:104EC000EF90DF90CF90BF90AF909F908F907F90AA
:104ED0006F905F904F903F902F900C9421266F928F
:104EE0007F928F929F92AF92BF92DF92EF92FF924A
:104EF0000F931F93CF93DF9361E087E30E94480CE9
:104F000061E088E30E94480C60E084EA95E00E943A
:104F1000641870E060E084EA95E00E94F325C4EA3A
:104F2000D5E082E0D82EDC8ADD8A9AE5892E912CA4
:104F30009D868C8628E2A22EB12CBF86AE8600EE1E
:104F400017E01B8B0A8B198B088B69E672E0CE0188
:104F50000E942126DC8ADD8A84EB90E09D878C8785
:104F6000BF86AE861B8B0A8B198B088B6FE672E0AF
:104F7000CE010E9421262885398540EEE42EFF24AB
:104F8000FA940CE310E04CE350E070E060E0CE01F6
:104F90000E946B21DC8ADD8A55E0E52EF12CFD862E
:104FA000EC8680E590E09F878E8700E018EF1B8BF2
:104FB0000A8B198B088B65E772E0CE010E942126CF
:104FC000DC8ADD8AFD86EC868CE890E09F878E8700
:104FD0001B8B0A8B198B088B6CE772E0CE010E9449
:104FE0002126DC8ADD8AFD86EC8688EC90E09F87AE
:104FF0008E871B8B0A8B198B088B60E872E0CE01C1
:105000000E9421260DE519E0F801F382E28262E2B6
:10501000E62EFF24F394F582E48297828682B1869D
:10502000A086158614861786168666246A94762CC2
:10503000718A608AD286D386D183C08349E050E0EA
:1050400065E872E08FE699E00E942B45F801138E27
:1050500060E0C8010E9429260FE319E081E990E091
:10506000F80193838283F582E48297828682B186F7
:10507000A0861586148617861686718A608AD2865F
:10508000D386D183C08349E050E06CE872E081E5CB
:1050900099E00E942B45F801138E60E0C8010E9440
:1050A00029268091210490912204909301028093FB
:1050B0000002DF91CF911F910F91FF90EF90DF9051
:1050C000BF90AF909F908F907F906F9008954F9278
:1050D0005F926F927F928F929F92AF92BF92CF9288
:1050E000DF92EF92FF92CF93DF93EC016A017B0195
:1050F00020E030E0A901CB01B6010E94BD4187FF4D
:1051000004C0F7FAF094F7F8F09488A099A0AAA048
:10511000BBA0A7019601C501B4010E94BD4188232F
:1051200009F44DC06CA97DA98EA99FA90E946C426B
:105130002B013C01A7019601C501B4010E94C241A7
:105140009B01AC01C301B2010E9421430E94344281
:105150006CAB7DAB8EAB9FABA701960160E070E0BE
:1051600080E090E40E94C2410E94944326E53EE024
:105170004DE25FE30E94214320E034E244E759E43A
:105180000E94214368AF79AF8AAF9BAFC8A2D9A272
:10519000EAA2FBA2E881F9810084F185E02DCE012D
:1051A000DF91CF91FF90EF90DF90CF90BF90AF90C5
:1051B0009F908F907F906F905F904F901994DF91A8
:1051C000CF91FF90EF90DF90CF90BF90AF909F90E6
:1051D0008F907F906F905F904F9008950C949D44B6
:1051E0001F93CF93DF9385ED8093BC008091AD0337
:1051F0009091AE03A091AF03B091B0030796A11DAB
:10520000B11D23E0B695A795979587952A95D1F777
:105210002091BC0024FD03C01092F50352C04091C0
:10522000AD035091AE036091AF037091B003452B75
:10523000462B472B69F30097A105B10541F02AE2FF
:105240002A95F1F700C00197A109B109E1CF80913A
:10525000AC03C1E0C093AB03882399F1D091B800AF
:105260001091BA008091BC008A7B8093BC0060E002
:1052700084E10E941A0C60E085E10E941A0C1092F1
:10528000F503C093F7031092F60361E084E10E94F6
:105290001A0C61E085E10E941A0C8091B9008E7FA2
:1052A0008093B9008091B9008D7F8093B90088E424
:1052B0008093B80085E48093BC001093BA00D0932B
:1052C000B800DF91CF911F9108951F920F920FB6F2
:1052D0000F9211242F933F938F939F93AF93BF937C
:1052E0008091240490912504A0912604B091270474
:1052F0003091230423E0230F2D3758F50196A11D8B
:10530000B11D209323048093240490932504A0933B
:105310002604B09327048091280490912904A09139
:105320002A04B0912B040196A11DB11D809328047D
:1053300090932904A0932A04B0932B04BF91AF91BA
:105340009F918F913F912F910F900FBE0F901F90C3
:10535000189526E8230F0296A11DB11DD2CF1F92EA
:105360000F920FB60F9211240BB60F922F933F930B
:105370004F935F936F937F938F939F93AF93BF935D
:10538000EF93FF938DE294E00E94980DFF91EF91CF
:10539000BF91AF919F918F917F916F915F914F914D
:1053A0003F912F910F900BBE0F900FBE0F901F904B
:1053B00018951F920F920FB60F9211240BB60F92F1
:1053C0002F938F939F93EF93FF93E0913D04F09180
:1053D0003E048081E0914304F091440482FD1DC0AD
:1053E0009081809146048F5F8F73209147048217CC
:1053F00041F0E0914604F0E0E35DFB4F958F809330
:105400004604FF91EF919F918F912F910F900BBECA
:105410000F900FBE0F901F9018958081F2CF1F92B2
:105420000F920FB60F9211240BB60F922F933F934A
:105430004F935F936F937F938F939F93AF93BF939C
:10544000EF93FF938091B900887F803609F44DC0B7
:1054500008F040C0883209F4A7C028F5803109F46B
:105460009BC0C8F4882309F4F7C0883009F494C0BD
:10547000FF91EF91BF91AF919F918F917F916F912C
:105480005F914F913F912F910F900BBE0F900FBEE8
:105490000F901F901895883109F486C0803241F72B
:1054A0008093F40314C0803409F49BC040F480332B
:1054B000B9F38833E9F68093F40385ECAEC0803508
:1054C00009F483C0883509F494C0883489F60E94B1
:1054D000F028CECF883909F48AC038F5883729F00A
:1054E00050F4883611F0803719F683E08093F50385
:1054F0001092F30355C0883809F479C0803919F047
:10550000803809F0B5CF8091F303803208F06FC086
:10551000E091F30381E08E0F8093F3038091BB0051
:10552000F0E0ED52FC4F80833BC0803B39F0D0F47B
:10553000803A09F477C0883A09F09ACF84E08093E2
:10554000F5031092D2031092D103F0E0E0E0199538
:105550008091D10381110FC081E08093D10310921B
:10556000B10309C0803C09F4A8CF883C09F4A5CF59
:10557000883B09F07DCFE091D20381E08E0F8093CC
:10558000D203F0E0EF54FC4F80818093BB009091F8
:10559000D2038091D10329C080911A048093BB006B
:1055A00085EC8093BC0064CF90911904809118041D
:1055B000981758F5E091190481E08E0F8093190433
:1055C000F0E0E850FC4F8081E9CFE091190481E0E0
:1055D0008E0F809319048091BB00F0E0E850FC4FDF
:1055E000808390911904809118049817C8F285E877
:1055F000D8CFE091190481E08E0F80931904809137
:10560000BB00F0E0E850FC4F80838091F7038111EC
:105610005ECF81E08093F60384EA8093BC00109211
:10562000F50326CF85EC8093BC001092F5038091A2
:10563000F303803230F4E091F303F0E0ED52FC4FDD
:1056400010826091F30370E083ED93E0F0E0E0E01E
:1056500019951092F3030CCF1092F40338CFCF9327
:10566000DF93EC018FE092E09983888381E08F8360
:10567000188A198A1A8A1B8A1C8A1D8A1E8A1F8AFE
:10568000188E198E1A8E1B8E1C8E1D8E1E8E1F8ECE
:1056900018A219A21AA21BA280E090E0A0E8BFE322
:1056A0008CA39DA3AEA3BFA31B821C821D821E825E
:1056B00021E030E03DA72CA72FEF2FA718A619A6B1
:1056C0001AA61BA66887498724E02A8725E02B872E
:1056D0001EA61CAA1DAA1EAA1FAA18AE19AE1AAE93
:1056E0001BAE1CAE1DAE1EAE1FAEFE01E05CFF4F3A
:1056F00080839183A283B3831A821C861D861E86B3
:105700001F86CE010E94580E40E050E060E87FE323
:10571000CE010E94672840E050E060E87FE3CE01C0
:10572000DF91CF910C94D211EDE2F4E0138212825A
:1057300088EE93E0A0E0B0E084839583A683B783EE
:105740008FE292E09183808385EC90E09587848757
:1057500084EC90E09787868780EC90E0918B808B3B
:1057600081EC90E0938B828B82EC90E0958B848B24
:1057700086EC90E0978B868B118E128E138E148E92
:105780001092C60A1092C50A1092A80A1092A70A8F
:1057900010928A0A1092890A10926C0A10926B0A6F
:1057A00010924E0A10924D0A1092300A10922F0A4F
:1057B0001092120A1092110A1092F4091092F30931
:1057C0001092D6091092D5091092B8091092B70913
:1057D00010929A091092990910927C0910927B09F3
:1057E00010925E0910925D091092400910923F09D3
:1057F00010922209109221091092040910920309B3
:105800001092E6081092E5081092C8081092C70896
:105810001092AA081092A90810928C0810928B0876
:1058200010926E0810926D081092500810924F0856
:105830001092320810923108109214081092130836
:105840001092F6071092F5071092D8071092D7071A
:105850001092BA071092B90710929C0710929B07FA
:1058600010927E0710927D071092600710925F07DA
:1058700010924207109241071092240710922307BA
:1058800010920607109205071092E8061092E7069C
:105890001092CA061092C9061092AC061092AB067E
:1058A00010928E0610928D061092700610926F065E
:1058B000109252061092510610923406109233063E
:1058C00010921606109215061092F8051092F70520
:1058D0001092DA051092D905E4EAF5E013821282FB
:1058E00020EF30E03583248380E491E09783868342
:1058F0003187208793878287168A158614861786B4
:10590000168681E0858B848B2FEF3FEF338B228BC4
:10591000318B208B878B108E128E118E81E492E05A
:1059200091838083ECE9F5E087E3828388E38483D5
:1059300087E0838386E085838CE291E0978386838A
:105940008AE090E09183808346E167E188E595E015
:105950000E942F2B48E169E184E195E00E942F2B02
:105960004AE16BE180ED94E00E942F2BEAECF4E039
:1059700013821282118210820895CF93DF93CDB7E4
:10598000DEB7A1970FB6F894DEBF0FBECDBF7894F7
:1059900084B5826084BD84B5816084BD85B5826034
:1059A00085BD85B5816085BD80916E0081608093E5
:1059B0006E0010928100809181008260809381004E
:1059C000809181008160809381008091800081605E
:1059D000809380008091B10084608093B1008091B9
:1059E000B00081608093B0008091910082608093CC
:1059F000910080919100816080939100809190004E
:105A00008160809390008091A10082608093A100CA
:105A10008091A10081608093A1008091A0008160AD
:105A20008093A00080912101826080932101809168
:105A30002101816080932101809120018160809308
:105A4000200180917A00846080937A0080917A00AE
:105A5000826080937A0080917A00816080937A00DE
:105A600080917A00806880937A001092C100E09162
:105A70003D04F0913E0482E08083E0913904F0918E
:105A80003A041082E0913B04F0913C048FEC808357
:105A900010924504E0914104F091420486E0808335
:105AA000E0913F04F0914004808180618083E09127
:105AB0003F04F0914004808188608083E0913F043E
:105AC000F0914004808180688083E0913F04F091F0
:105AD000400480818F7D808360E090E080E00E94C0
